:020000040800F2
:10000000385000203D03000845030008470300085E
:10001000490300084B0300084D03000800000000DE
:100020000000000000000000000000007502000851
:100030005103000800000000ED0200082903000839
:1000400057030008570300085703000805920008EB
:100050005703000857030008DD400008FD40000872
:10006000054100080D41000815410008570300082C
:1000700057030008570300085703000857030008F8
:1000800057030008570300085703000857030008E8
:100090005703000857030008570300081D410008D4
:1000A00057030008570300085703000857030008C8
:1000B000570300085703000861B5000857030008FC
:1000C00057030008570300085703000857030008A8
:1000D000570300085703000857030008BDB600087F
:1000E000E5400008570300085703000800F002F835
:1000F00000F07AF80AA090E8000C82448344AAF148
:100100000107DA4501D100F06FF8AFF2090EBAE845
:100110000F0013F0010F18BFFB1A43F0010318473B
:1001200068FB010088FB01000A444FF0000C10F846
:10013000013B13F0070408BF10F8014B1D1108BF65
:1001400010F8015B641E05D010F8016B641E01F805
:10015000016BF9D113F0080F1EBF10F8014BAD1C55
:100160000C1B09D16D1E58BF01F801CBFAD505E073
:1001700014F8016B01F8016B6D1EF9D59142D6D3CD
:10018000704700000023002400250026103A28BFF5
:1001900078C1FBD8520728BF30C148BF0B607047F9
:1001A000662913F01C87642900F07881752900F016
:1001B0007581782900F0AE81732900F0A4870020B2
:1001C00070471FB500F0A3FF04000020002113F0CA
:1001D00057F8E0601FBD10B510BD03B4FFF7FBFF7B
:1001E00003BC01F093F8000000F0CCF81146FFF7D3
:1001F000E8FF11F0BFFA0448002111F081FB11F073
:10020000CBFA00F053FA00004000002080F3098888
:100210007047EFF309807047684680F30988044807
:100220000078C00714BF0220032080F314887047B1
:10023000CCE60108DFF818C0EFF305831B0618BFF2
:100240006047EFF31483DB0708BF604700DF7047A8
:10025000011A0108DFF818C0EFF305831B0618BF69
:100260006047EFF31483DB0708BF604700DF704788
:10027000E51B0108EFF30980816911F8021CF1B94F
:1002800090E80F10E047EFF3098C8CE80700144B5F
:1002900093E8060091420FD039B12CE9F00FC1F874
:1002A00024C00CB411F0D2FF0CBC1A60D2F824C0E8
:1002B000BCE8F00F8CF309886FF0020E704710B5A0
:1002C000084A1268914209D8074C54F8214090E836
:1002D0000F10A047EFF3098C8CE80F0010BD000051
:1002E00038010020101B0008101B000811F04AFE06
:1002F0000C4B93E80600914210D0EFF3098C2CE9E7
:10030000F00FC1F824C00CB411F0A0FF0CBC1A60AF
:10031000D2F824C0BCE8F00F8CF309886FF0020E0D
:10032000704700003801002012F056F8E0E70000A6
:1003300011F038FB12F050F8DAE700000948804766
:1003400009480047FEE77047FEE7FEE7FEE7FEE7E5
:10035000FEE7FEE7FEE7FEE704480549054A064BCF
:10036000704700003DB40008ED000008384A002046
:1003700038500020384C0020384C0020004870478E
:10038000D44900207546FFF7F9FFAE4605006946DF
:10039000534620F00700854618B020B5FFF7DCFF74
:1003A000BDE820404FF000064FF000074FF0000876
:1003B0004FF0000B21F00701AC46ACE8C009ACE8F7
:1003C000C009ACE8C009ACE8C0098D467047000020
:1003D0000FB41CB5074B06AA7B44694600900598EC
:1003E00000F067FE0020694600F076FE1CBC5DF858
:1003F00014FB0000FD0C000070B504468569006820
:10040000C10601D5302600E02026C00708D070BD07
:10041000D4E9012130469047206A00F101002062B2
:100420006D1EF5D570BD70B5044685690078C007AE
:1004300008D170BDD4E9012120209047206A00F145
:10044000010020626D1EF5D570BD70B50C460546E5
:10045000012A05D02878800600D5EA69002302E049
:10046000012305E05B1C934202D2E05C0028F9D135
:10047000A869E618C01AA861286A184428622846A4
:10048000FFF7BAFF04E0D5E9012114F8010B90470A
:10049000B442F8D32846FFF7C6FF70BD2DE9F041FE
:1004A0000646002410687529314616A511D0AFF311
:1004B0000080002803DAC0F1000013A507E03168CE
:1004C0008A0701D511A502E0490704D510A501242A
:1004D00001E0AFF3008000210A2306F1240707E0C2
:1004E000B0FBF3F203FB1200303078541046491C85
:1004F0000028F5D123462A463046BDE8F04100F0F9
:1005000067BB0000000000002D0000002B00000071
:100510002000000070B504460D4621461068AFF378
:1005200000802188090502D5104A7A4402E00F4A6A
:100530007A440E32002104F1240307E000F00F0694
:100540004FEA1010965D5E5401F101010028F5D1CB
:1005500003462078000704D5702D02D009B111326E
:1005600002232046BDE8704000F032BBEAF00100F3
:100570002DE9F05F894604464FF0000ADFF828B104
:10058000FB44C0F820A02046E168884700287CD0C2
:10059000252806D0D4E901219047206A401C20621A
:1005A000F1E700255F462046E16888472028064697
:1005B00008DB312E06D207EB060010F8200C08B13C
:1005C0000543F0E7A80701D525F00405C4F81CA0F1
:1005D0000027C4F818A02A2E09D030460CF003FDDD
:1005E00038B304EB8708303EC8F8186019E059F8B2
:1005F000041B204604EB87029161E1688847012FC4
:10060000064618D1E069002820DA25F020051DE013
:10061000D8F8180000EB800006EB40003038C8F82E
:1006200018002046E168884706460CF0DCFC0028EC
:10063000EED1012F0AD02E2E08D12046E16888473E
:100640007F1C0646022F45F02005C4DBA069002868
:1006500003DA404245F00105A061E80701D025F02A
:10066000100596B1A6F14100192802D8203645F4AC
:1006700000654A463146204625604D46FFF790FD0D
:1006800060B1012807D0ED1D00E009E025F007006A
:1006900000F1080977E705F1040974E7304679E7C6
:1006A000206ABDE8F09F0000BCF001000446AFF3F3
:1006B00000802046FFF791FD40EA0103024630B575
:1006C0009B0710D14FF0013400E008C208C91D1B80
:1006D0009D4315EAC41FF8D013F0FF0102F8011B77
:1006E0000DD01B0AF8E711F8013B002B02F8013B83
:1006F00005D011F8013B002B02F8013BF3D130BDCE
:1007000010B5431C02E010F8011B71B18107FAD14A
:100710004FF0013202C88C1A8C4314EAC211F9D08E
:10072000C01A0A0603D0C01E10BDC01A10BD0A04AC
:1007300001D0801E10BD0902FCD0401E10BD40EA51
:10074000010370B59B072ED14FF00136042A2AD33E
:1007500008C810C9121F9D1B9D4315EAC61517D066
:10076000D8B2E1B2401A50EA056110D198B2A1B2F4
:10077000401A50EA05410AD123F07F4024F07F411E
:10078000401A50EA052102D1180EA0EB146070BD8A
:10079000A342DBD018BA21BA884201D9012070BD2A
:1007A0004FF0FF3070BD0AB9002070BD10F8013B5A
:1007B00011F8014B63B1A3420AD1521E08D010F8C0
:1007C000013B11F8014B1BB1A34201D1521EEDD1E7
:1007D000181B70BD421E12F8013F002BFBD111F80F
:1007E000013B002B02F8013BF9D17047032A40F28C
:1007F000308010F0030C00F0158011F8013BBCF1C3
:10080000020F624498BF11F801CB00F8013B38BFDA
:1008100011F8013BA2F1040298BF00F801CB38BFE8
:1008200000F8013B11F0030300F02580083AC0F006
:10083000088051F8043B083A51F804CBA0E80810AE
:10084000F5E7121D5CBF51F8043B40F8043BAFF3E1
:100850000080D20724BF11F8013B11F801CB48BF3B
:1008600011F8012B24BF00F8013B00F801CB48BF71
:1008700000F8012B704710B5203AC0F00B80B1E8AA
:100880001850203AA0E81850B1E81850A0E81850C5
:10089000BFF4F5AF5FEA027C24BFB1E81850A0E8CE
:1008A000185044BF18C918C0BDE810405FEA827CE8
:1008B00024BF51F8043B40F8043B08BF7047D207FF
:1008C00028BF31F8023B48BF11F8012B28BF20F8A0
:1008D000023B48BF00F8012B70474FF0000204298B
:1008E000C0F0128010F0030C00F01B80CCF1040C5F
:1008F000BCF1020F18BF00F8012BA8BF20F8022B93
:10090000A1EB0C0100F00DB85FEAC17C24BF00F838
:10091000012B00F8012B48BF00F8012B70474FF066
:10092000000200B5134694469646203922BFA0E83F
:100930000C50A0E80C50B1F12001BFF4F7AF09074B
:1009400028BFA0E80C5048BF0CC05DF804EB89003C
:1009500028BF40F8042B08BF704748BF20F8022B7F
:1009600011F0804F18BF00F8012B704730B50368B5
:100970001C1404EB21459BB289B2194495FBF2F497
:1009800002FB145301EB034191FBF2F302FB131141
:1009900001E05B1E11440029FBDB016003EB044016
:1009A00030BD2DE9F04704464FF0FF3A86B00068AD
:1009B000029060680390A0680490E068019020694C
:1009C00000906569B5F1804F7EDCB5F1404F7BDB6F
:1009D0003C22002102A8FFF7C9FF3C22014603A8E0
:1009E000FFF7C4FF1822014604A8FFF7BFFF411E0E
:1009F00040F2B55201A8FFF7B9FF0C22064668463F
:100A00000021FFF7B3FF00EB860028443E4D00268F
:100A10007D440FE09A1A491CCDE90012022902D048
:100A20000C2907D104E0810704D0521C019201E097
:100A3000401C00960099019B6A5C9A42EADD0129FC
:100A400006D11C2B04D1810702D00221CDE900166A
:100A5000A0F146018B2940D20199009B00220F464C
:100A600002E0AE5C521C31449A42FADB012B02DDFB
:100A7000820700D0491E40F2B55540F26D16C217EC
:100A800000EB927292106A4300F0030505FB062208
:100A900085070A4400D1521E049D02EB4206DDF890
:100AA0000C80A94605EBC605184EC5EB0515DDF80B
:100AB00008C008EB850535442E14ADB2C6EB06160A
:100AC000C5EB0515B60000E007E00CEB850506EB6D
:100AD000154666F31F45360C03D0504606B0BDE8F8
:100AE000F0877F1CC4E90430521C072092FBF0F30E
:100AF00004F1180600FB1320A6E803042846C4E905
:100B00000297C4E900C8E9E73DEC0100A039CEFD39
:100B100070B50C46016800204A1C34D040F2B5552F
:100B20003C23B1FBF3F203FB12112160B2FBF3F1A2
:100B300003FB112218236260B1FBF3F203FB1211D5
:100B4000A16046F2E0310A440721B2FBF1F301FB58
:100B50001321B2FBF5F305FB1322A1619900B2F555
:100B6000B77F06D3521EAD10B2FBF5F3194405FB57
:100B700013220F4BE261616189077B440CD03B2A51
:100B80000AD3521C08E02C212046FFF7C8FE0120A2
:100B9000E0600AE0521A401C195C9142FAD9521CDA
:100BA000C4E903204FF0FF302062204670BD0000F2
:100BB000D3EA010070477047704710B500F0ACFAF7
:100BC000006810BD10B5044600F0A6FA046010BD20
:100BD0002DE9F0470D4699469246044600F1240857
:100BE0000168880604D5E06921F01001216000E069
:100BF0000120A84202DDA0EB050700E00027A16963
:100C000007EB050202EB0900A1EB0000A0612078D0
:100C1000C00602D42046FFF7EFFB002608E0D4E927
:100C200001211AF806009047206A401C761C2062B9
:100C30004E45F4DB2078C0060AD52046FFF7DCFBE2
:100C400006E0D4E9012130209047206A401C206250
:100C5000381EA7F10107F4DC07E0D4E9012118F8F8
:100C600005009047206A401C2062281EA5F101055E
:100C7000F3DC2046FFF7D7FB2078000602D50220E0
:100C8000BDE8F0870120FBE770472DE9FF4F0C46D8
:100C90001E464FF0FF378BB0D2E90001DDF86080CF
:100CA0000A908A46C1F30A5505B93D460021084617
:100CB0004FF00000BAF1000F00F4400005DA00EB3D
:100CC00080004FF4400101EA50004FEA9059B9F119
:100CD000010F00DDB9460A9850EA4A000ED044F6EA
:100CE0001050A5F2FF3545432F14B8F1000F1ED068
:100CF0007542291E1EDDC9F100021CE0B8F1010F8A
:100D00004FF0000001D0302103E0F24305E0215410
:100D1000401CB042FBDB30460022002121540B99DD
:100D2000C1F80880C1E900200FB0BDE8F08FBD1BFD
:100D30006D1CDEE74A4600DA694206A800F074FA44
:100D400006AB07CB03AB07C350460A9900F025FB5F
:100D50008DE80700A0F500501F3800900398002D83
:100D600009DD42F21F014A46084403A90390684680
:100D700000F084FD08E0A0F500504A461F3803A9A2
:100D80000390684600F08EFD8DE807000004000C1B
:100D900003D04FF0FF30410800E01046B8F1000FDB
:100DA00003D00022009215461FE0751E06D400F005
:100DB000B5F902F1300262556D1EF8D5B346012235
:100DC000084302D000227F1C04E02078302801D1A3
:100DD00000227F1E002A099787D01DE0112D07DA17
:100DE00000F09CF9303262556D1C50EA0102F5D1D9
:100DF00008430FD10021681E05E0235C625C635448
:100E0000491C2254401E8142F7DBAB46A81B401E02
:100E1000099001E0009848B1002004F80B000B98FD
:100E2000099AC0F80880C0E9002B7DE711264FF031
:100E300000085AE72DE9F04F88460446D21D22F0FB
:100E4000070191B0D1E90001CDE90A010CF029F8C0
:100E500002460B98C00F01D02D2007E020688107C3
:100E600001D52B2002E0202101EAC000032A0990CD
:100E700001D0072A05DB03464146204600F094F9DD
:100E80000FE12078800601D5E06900E00620B8F186
:100E9000650F814606D0B8F1660F18D0B8F1670F1C
:100EA00072D132E00020B9F1110F009001DB112363
:100EB00001E009F101030AAA01A90CA8FFF7E5FE68
:100EC000DDE90C70002609F10105834648E00120A8
:100ED0004B4600904FF000470AAA01A90CA8FFF763
:100EE000D4FEDDE90DB00C995D46002618B909F174
:100EF000010001EB0005B9EB050003D4C0F1FF369A
:100F000009F10105A5EB09002BE0B9F1010F01DAA8
:100F10004FF001090020B9F1110F0090484601DDA2
:100F2000112300E003460AAA01A90CA8FFF7ADFEB1
:100F3000DDE90C704D4600268346207800070AD470
:100F4000AB4500DA5D4601A8012D04DD411911F819
:100F5000011C302907D04F4502DA17F1040F04DADB
:100F60000120824610E06D1EEEE7002F02DCED1B33
:100F70003E4403E0781CA84200DD0546A7EB0600CE
:100F800000F1010A4FF000472078000703D4AA457A
:100F900001DB4FF0FF3A0021B7F1004F0DF143089C
:100FA0008DF8431023D002202B23002F01DA7F423B
:100FB0002D234FF00A0C011EA0F1010000DC4FB1FF
:100FC00097FBFCF10CFB11720F4602F1300208F89E
:100FD000012DF0E7A8F1010003702188090501D572
:100FE000452100E06521A0F1010800F8011C0998E5
:100FF0000FA9A1EB080707F1070700B1012000EBDB
:10100000050101EBEA70A1693844A1EB0000A0F1F1
:101010000100A0612078C00602D42046FFF7ECF959
:10102000099830B1D4E901219047206A00F101000C
:1010300020622078C00620D52046FFF7DDF91CE0AD
:10104000002E04DBB34502DD01A8805D00E0302006
:10105000D4E901219047206A761C401CBAF1010AAC
:1010600020620AD100F053F8C0680168405CD4E9FE
:1010700001219047206A401C2062281EA5F101052D
:10108000DEDC07E0D4E9012118F8010B9047206A63
:10109000401C2062381EA7F10107F3DC2046FFF751
:1010A000C2F9022011B040E601694A1C02610878C9
:1010B000704700B58FB0CDE9013100210591054998
:1010C0007944CDE9031011466846FFF751FA0FB095
:1010D00000BD0000E5FFFFFF0A6802F8010B0A608F
:1010E000704710B5436913B1AFF3008001E0FFF71B
:1010F000ACF9012010BD127800F124010A70002221
:101100004A700122EDE711684FF0FF32E9E710B5B0
:10111000FFF734F9203010BD0BF0D8BE30B5B0F178
:101120000A024FEA900E71F100034EEA817EB0EBA5
:101130000E0061EB91014FEA101E4EEA017E10EBAA
:101140000E0041EB11114FEA102E4EEA016E10EB2A
:101150000E0041EB11214FEA104E4EEA014E10EB0A
:101160000E0041EB1141401841F100014FEAD0005F
:1011700040EA41704FEAD10110EB80054FEA81044B
:1011800044EA907444EB01046D1944EB0404521BCF
:10119000A3414FF0000348BF0A3200D530BD401CC8
:1011A00041F1000130BD00002DE9F0411F46044629
:1011B00003260168072A01F4006004DB08B116A5C4
:1011C00005E016A503E008B115A500E015A521F07E
:1011D00010002060A069C01EA0610FB1401EA06178
:1011E0002046FFF709F94FB1D4E90121384690476D
:1011F000206A401C2062C01C206206E0206AFAE7D8
:10120000D4E9012115F8010B9047761EF8D220464B
:10121000FFF709F9BDE8F0814E414E006E616E00A6
:10122000494E4600696E66002DE9F0478146164634
:101230008AB035487844D0E9002380680092CDE92F
:101240000130314878440C38D0E902230069039218
:101250004FF03702CDE9043041F69B30014491FB59
:10126000F2F0A0F1800502FB10141B3C02D5644291
:10127000012000E00020DFF890A080460027FA441B
:10128000AAF1C60A0DE0E00709D03246684607EB2E
:1012900047010AEB810100F005FB8DE807006410AF
:1012A0007F1C002CEFD1184F7F44B43F17E0E807B4
:1012B00013D007EB04100DF1180A90E80E00AAE80D
:1012C0000E00C068F04201D198190890324606A974
:1012D00003A800F0E7FA03AB07C36D10641C002DF0
:1012E000E5D132466946B8F1000F03A802D000F0FC
:1012F000C5FA01E000F0D6FAC9E90001C9F80820F2
:101300000AB0BDE8F0870000A4E4010001491820FC
:10131000ABBEFEE7260002004FF0013C50F8042B64
:1013200051F8043B9A4221D1A2EB0C03934313EAF8
:10133000CC1317D150F8042B51F8043B9A4215D125
:10134000A2EB0C03934313EACC130BD150F8042BFC
:1013500051F8043B9A4209D1A2EB0C03934313EAE0
:10136000CC13DBD04FF00000704700BFD01A01BA99
:10137000B1FA81F101F0180122FA01F0CB40C1F17C
:101380002001DBB2C0B2C01A2CFA01F3D11A91438A
:1013900011EAC311E6D1704770475FEA400C08BFFD
:1013A00091F0000F4FEA8C234FEAC12243EA5151DA
:1013B0004FEA1C5018BF00F5F0404FEA300018BF4C
:1013C00041F000415FEA6C5C00F02980BCF1FF3F16
:1013D00008BF40F080407047130C06BF12044FF066
:1013E000100C4FF0000C130E04BF12020CF1080C8D
:1013F000130F04BF12010CF1040C930F04BF9200F1
:101400000CF1020CD30F04BF52000CF1010C114679
:101410004FF00002A0F11F00A0EB0C00704711F08C
:10142000004F08BF704731F000413FF4D5AF0B0CBF
:1014300006BF09044FF0100C4FF0000C0B0E04BF58
:1014400009020CF1080C0B0F04BF09010CF1040C8C
:101450008B0F04BF89000CF1020CCB0F04BF4900B5
:101460000CF1010CCCF12003A0EB0C0022FA03F3E9
:1014700002FA0CF241EA030100F10100704720F08A
:101480007F4C80EA030023F07F47ACEB070303F5B2
:101490007C5300F0004003F1FF032DE980494FEA3F
:1014A000154B09B44FEA144325EA0B4E24EA0348CE
:1014B0000FF2042606EB132749083E785FEA320252
:1014C00003FB0667C7F5000707FB06F64FEA54372C
:1014D0004FEAD64606F1020607FB066CCCF1005C2B
:1014E0004FEA1C472CEA074C07FB06F40CFB06F5F9
:1014F00004EB15464FEA961634BF00204FF000402B
:101500004FEAD13706FB07FC4FEA1C4C0CFB0BF7EC
:10151000D21B03FB0CF761EB07010CFB0EF7B0EBE2
:10152000074072EB17420CFB08F734BFA2EB0742EF
:10153000B2EB074261EB17414FEA0C444FEA9107C7
:1015400006FB07FC4FEA1C4C0CFB0BF7B0EBC7404B
:1015500072EB573203FB0CF734BFA2EBC742B2EB7E
:10156000C74261EB57310CFB0EF7B0EBC70072EBD3
:1015700057720CFB08F734BFA2EBC702B2EBC702ED
:1015800061EB5771039F4FEA816141EA921104EBCD
:10159000CC044FEAD1374FEA826206FB07FC42EAED
:1015A00090124FEA80604FEA1C4C0CFB0BF7D21BE9
:1015B00003FB0CF761EB07010CFB0EF7B0EB0740E8
:1015C00072EB17420CFB08F734BFA2EB0742B2EBF9
:1015D000074261EB17414FEA8C554FEA910704EB44
:1015E0009C2406FB07FC4FEA1C4C0CFB0BF7B0EBF2
:1015F000C74072EB573203FB0CF734BFA2EBC74274
:10160000B2EBC74261EB57310CFB0EF7B0EBC700F2
:1016100072EB57720CFB08F734BFA2EBC702B2EBB8
:10162000C70261EB577115EB4C254FEA816141EA26
:1016300092114FEA82624FEAD13742EA901206FBDA
:1016400007FC44F100044FEA80604FEA1C4C0CFB9D
:101650000BF7D21B03FB0CF761EB07010CFB0EF73A
:10166000B0EB074072EB17420CFB08F734BFA2EB5C
:101670000742B2EB074261EB174115EB1C154FEA2D
:10168000813141EA92414FEA823242EA90424FEA86
:1016900080304FEA0C7644F1000448EA03434EEAF6
:1016A0000B484FF0000EB2EB080C71EB030724BFA0
:1016B000624639464EEB0E0E4FF0000B00185241B9
:1016C00049414BEB0B0BB2EB080C71EB03077BF1C1
:1016D000000B24BF624639464EEB0E0E4FF0000B56
:1016E0000018524149414BEB0B0BB2EB080C71EB6C
:1016F00003077BF1000B24BF624639464EEB0E0E0A
:1017000051EA020718BF46F0010616EB0E7655F1B6
:10171000000254F1000103D5BDE88901BDE800884D
:10172000BDE88901BDE80048B619524141EB01010D
:10173000A3F10103704780807F7E7D7C7B7A79787E
:10174000777676757473727171706F6E6E6D6C6C86
:101750006B6A6A6968686766666564646363626128
:101760006160605F5F5E5E5D5D5C5C5B5B5A5A59A9
:101770005958585757565655555554545353525215
:101780005251515050504F4F4F4E4E4D4D4D4C4C6D
:101790004C4B4B4B4A4A4A494949484848474747B6
:1017A00047464646454545444444444343434342F3
:1017B000424242414141002B26D4770021D01CB542
:1017C0004FEA370703B44FF010004FF010014FF00D
:1017D00000000FBCBDE810400BF1010BBBF1010F85
:1017E00008BF5FEA170722BF12F1010211F10101E0
:1017F0004FF0004143F1000300F0004043EA0000D5
:101800007047F9D35708DAE746EA064613F1400F66
:101810004FEA16461FDD13F1200FDFBF16430A46BD
:10182000002120335B42C8D0C3F1200746EA0646B8
:1018300002FA07F74FEA164646EA0706C3F1200701
:1018400022FA03F201FA07F721FA03F14FF000033D
:1018500042EA0702B1E746EA020646EA06464FEACE
:10186000164646EA0106BCBF46EA0646360C4FF06D
:1018700000034FF000024FF000019EE72DE9C04841
:10188000934630B491E8380007C831EA400C48BFAD
:1018900034EA430C03D5FFF7F2FDFFF78CFFF0BCF1
:1018A000BDE800882DE9C048934630B491E838007F
:1018B00007C810F0804F08BF13F0804F03D100F02D
:1018C00005F8FFF778FFF0BCBDE8008820F07F47FF
:1018D00080EA030023F07F4C07EB0C03A3F57C5355
:1018E00000F00040A3F1FE0392F0000F00F0B3807F
:1018F00095F0000F00F077802DE901494FEA114083
:101900004FEA144621EA004800FB06FC24EA064799
:1019100008FB06F607FB08F800FB07F718EB06487C
:101920004CEB164C4FEA124B18EB07484FEA1546A2
:101930004CEB174022EA0B4E0BFB06FC25EA064750
:101940000EFB06F607FB0EFE0BFB07F71EEB064E23
:101950004CEB164C4FF000061EEB074E4CEB174BB2
:1019600018EB0B0840F1000018EB0E0B58EB0008C9
:1019700040F100008F1A4FF000013CBFC943661BC5
:1019800014BFB5EB040C00213CBFC943F61B4FEA62
:1019900017444EEA8E0E27EA04454FEA1C4704FB23
:1019A00007622CEA074C05FB07F70CFB05F604FB66
:1019B0000CFC16EB074642EB174216EB0C4642EBCB
:1019C0001C421BEB060658EB0202414146EA9E060A
:1019D00001D5BDE80189B619524141EB0101A3F1DE
:1019E0000103BDE801894FEA14454FEA114724EA93
:1019F000054621EA074C05FB07F406FB07F70CFB3D
:101A000006F105FB0CFC11EB074144EB17444FEAD0
:101A1000124711EB0C4144EB1C4422EA074C05FB36
:101A200007F206FB07F70CFB06F605FB0CFC16EBB2
:101A3000074642EB174216EB0C4642EB1C456A1870
:101A400054F1000148BF7047B619524141EB010102
:101A5000A3F10103704795F0000F37D04FEA114210
:101A60004FEA144721EA024624EA074C02FB07F139
:101A700006FB07F70CFB06F402FB0CFC14EB074417
:101A800041EB17414FEA154714EB0C4441EB1C4165
:101A900025EA074C02FB07F506FB07F70CFB06F6E9
:101AA00002FB0CFC16EB074645EB174516EB0C4604
:101AB00045EB1C42121951F1000148BF7047B6199D
:101AC000524141EB0101A3F1010370474FEA144574
:101AD0004FEA114724EA054621EA074C05FB07F1C6
:101AE00006FB07F70CFB06F24FF0000605FB0CFCAB
:101AF00012EB074241EB174112EB0C4251EB1C4138
:101B000048BF7047921841EB0101A3F101037047F0
:101B10000000000008F0F4B810B50022074B114691
:101B200001EB810403EB440434F81040491CC9B2B2
:101B300022441029F4D3C2F30F1010BD620100201B
:101B400009498A6942F010028A6108B1491501E029
:101B50004FF0007105480161416821F0F00141F04A
:101B60003001416070470000001002400010014049
:101B7000024890F83C0002480BF0AAB83049002017
:101B8000B8BC0108264910B508684FF6FF0210409E
:101B9000244A40F4E06010430860062004F0EEFBA5
:101BA000072004F0EBFB082004F0E8FB092004F018
:101BB000E5FB0A2004F0E2FB172004F0DFFB2820FD
:101BC00004F0DCFB1E2004F0D9FB272004F0D6FB38
:101BD00009F076FC154A1448D16941F00201D1613F
:101BE00000210180018540F65F13838501238382F4
:101BF000018446F2600303838383818601878187A2
:101C0000A0F84010018841F001010180906940F086
:101C1000010090610648416841F44061416010BD97
:101C20000CED00E00000FA05000400400010024046
:101C30000000014008B5024908440090008808BD32
:101C4000006C004008B5024A10440090016008BDD5
:101C5000006C0040002009F0CFBC00000148007873
:101C600009F0CABC2800002070B515460E4604468F
:101C70000CF06EFA21461648FEF71EFD144800F0DF
:101C800077FA304600F028F964211248FEF725FE65
:101C9000002229460F4800F05FF90F4C60700120C8
:101CA00000F008FA64210A48FEF717FE642109488B
:101CB000FEF713FE0CF054FA6078142802D01728AF
:101CC00002D003E0012070BD0CF021FA002070BDAD
:101CD000D4460020A8450020B600002010B50446D8
:101CE0000CF036FA21460648FEF7E6FC044800F000
:101CF0003FFA00F043FA04460CF032FA204610BDD9
:101D0000D44600202DE9F0411C4615460E460746F4
:101D10000CF01EFA23462A463146384600F07CF87D
:101D2000142804D00CF01CFA0020BDE8F0810CF05F
:101D300017FA0120F9E700002DE9F0411C4615468D
:101D40000E4607460CF004FA23462A46314638462A
:101D500000F092F8084C60700CF002FA60781428D9
:101D600002D0172803D004E00120BDE8F0810CF078
:101D7000CEF90020F9E70000B600002010B50446B7
:101D80000CF0E6F921460B48FEF796FC094800F0F6
:101D900011F909494870012000F08CF964210548C7
:101DA000FEF79BFD64210548FEF797FDBDE8104056
:101DB0000CF0D6B9D4460020B6000020A84500207B
:101DC00070B515460E4604460CF0C2F921460F4880
:101DD000FEF772FC0D4800F07AF90D4CA9B2002212
:101DE0006070304600F0B8F86070012000F062F9D1
:101DF000607064210548FEF770FD64210548FEF718
:101E00006CFDBDE870400CF0ABB90000D44600207A
:101E1000B6000020A84500202DE9F0411C461646DA
:101E20000F4605460CF094F929461048FEF744FC8D
:101E30000E4800F09DF9384600F04EF8A1B200229D
:101E4000304600F062F80A4C6070012000F032F970
:101E500064210648FEF741FD64210648FEF73DFD7A
:101E60000CF07EF96078BDE8F0810000D4460020D7
:101E7000B6000020A84500202DE9F0411C46174679
:101E80000E4605460CF064F929461048FEF714FC8E
:101E90000E4800F06DF9384600F01EF8A1B20C4A69
:101EA000304600F059F80A4CA41E6070012000F082
:101EB00001F964210548FEF710FD64210548FEF78D
:101EC0000CFD0CF04DF96078BDE8F081D44600209F
:101ED000B8000020A845002010B50446392011F0B4
:101EE000BDF9E0B211F0C5F9C4F3072011F0C1F952
:101EF000C4F3074011F0BDF9200E11F0BAF911F04A
:101F00007DF9BDE810400AF0EFBE70B506461446F4
:101F10000D463A2011F0A2F9E8B211F0AAF9280A08
:101F200011F0A7F911F06AF90CB1002011E00AF0E4
:101F3000DBFE1D280FD1304600F052F905463B204C
:101F400011F08CF911F05AF92E44002CEFD02088B2
:101F500028442080EBE770BD2DE9F0410646144689
:101F60000D463C2011F07AF9E8B211F082F9280A06
:101F700011F07FF911F042F90CB1002020800C4FD4
:101F80000AF0B2FE1E2810D1304600F03CFA054699
:101F900038703D2011F062F911F030F92E44002C18
:101FA000EED0208828442080EAE7BDE8F0810000D8
:101FB000B400002010B5044600F0C4F920785C2875
:101FC00001D02F2803D10021642000F032FABDE8AF
:101FD0001040402000F096B910B505F0ABFF08B1F5
:101FE00000F0CFF8BDE81040302000F08BB9312070
:101FF00000F088B910B505200CF0EFFF5A2000F072
:1020000081F9044605200CF0E8FF204610BD0000D1
:102010002DE9F74F82B0834604980E46C700080E9C
:102020004FF0000AC1F30729C1F30748009056207A
:1020300011F014F9F0B211F01CF9484611F019F939
:10204000404611F016F9009811F013F9049811F0B8
:1020500010F911F0D3F83C4614E000BF0AF044FE3A
:1020600005461E2801D07CB113E04021584600F0FF
:10207000B4F9572011F0F2F811F0C0F8641E0BF11A
:10208000400BA4B2002CE9D10AF02EFE054614281C
:102090000ED0162D09D0FFF7ADFF0AF1010000F0B8
:1020A000FF0ABAF1030FC2D1284605B0BDE8F08F90
:1020B0001420FAE70146362000F017B910B508B130
:1020C00000F040F9BDE81040342000F01BB970B5B5
:1020D000054600F021F904000DD00146284600F025
:1020E00021F8412807D0142803D0422800D1B3207A
:1020F00070BD432070BD2819BDE87040FFF7DEBFFA
:1021000010B5044600F01EF920785C2801D02F2875
:1021100003D10021642000F08CF9BDE8104032208A
:1021200000F0F0B870B5054600200E46012401E02D
:10213000641CE4B2295D5C2913D02F2911D0002939
:10214000F6D100242844FFF7DBFF002C08D0B4426E
:1021500006D041280AD0142806D0422800D1B32046
:1021600070BD641CE4B2EDE7432070BD2046E1E79A
:10217000FF21FFF7D7BF2B2000F054B8682000F0F4
:1021800045B810B5222011F069F811F060F8044646
:1021900011F034F8204610BD04480178012901D01F
:1021A0000020704700210170012070473800002096
:1021B0002DE9F04111F04BF8064611F048F80546BC
:1021C00011F045F8044611F042F8074611F016F8F0
:1021D00046EA052040EA044040EA0760BDE8F08195
:1021E00070B50546272011F039F811F030F80400D9
:1021F000264607D011F02BF8641E05F8010B14F0E9
:10220000FF04F7D110F0FAFF304670BD10B5044658
:102210000C2011F023F8204611F02BF8BDE81040F7
:10222000FFF7C6BF10B504460A2011F017F8204684
:1022300011F01FF811F00BF8044610F0DFFF2046F4
:1022400010BD10B504464A2011F008F8E0B211F0B4
:1022500010F8C4F3072011F00CF8C4F3074011F094
:1022600008F8002011F005F810F0C8FFBDE8104094
:102270000AF03ABD2DE9F04115000F46804601D025
:10228000002028704C2010F0E9FF384610F0F1FFD4
:1022900010F0B4FF0AF028FD0646142823D12720A9
:1022A00010F0DCFF10F0D3FF10F0D1FF044610F067
:1022B000CEFF10F0CCFF10F0CAFFFFF779FF014608
:1022C00084B122464046FFF7A3FE064614280AD1F1
:1022D00008EB442815B1287820442870381B10F0EA
:1022E000FF07CFD13046BDE8F08110B50C4610F0A5
:1022F000B5FF204610F0BDFF10F080FFBDE8104094
:102300000AF0F2BC10B510F0A9FF10F077FFBDE89D
:1023100010400AF0E9BC0000014600E0491C0A78C0
:10232000002AFBD106E000BF11F8012D5C2A03D082
:102330002F2A01D08142F7D1814200D0491C081ACE
:10234000C0B2704770B50546012010F087FF10F04D
:102350007EFF432828D22B20FFF764FF102823D2CA
:102360002F2010F07BFF002010F083FF3220FFF7BA
:10237000C9FF142818D1CF20FFF754FF040013D051
:102380004C20FFF743FF00EB04214C2000F051F8F4
:102390005020FFF73BFF00EB0421502000F049F8EC
:1023A0000021702000F045F82F2010F057FF2C7806
:1023B00006E000BF15F8014F5C2C0AD02F2C08D086
:1023C000204610F056FF002CF4D1BDE8704010F00C
:1023D00015BF002010F04DFFF7E770B505460C461D
:1023E0002C2010F03BFF204610F043FF3CB1287832
:1023F00010F03FFF6D1C641E14F0FF04F7D1BDE820
:10240000704010F0FBBE70B505462D2010F026FF81
:1024100010F01DFF0400264607D0287810F029FF91
:102420006D1C641E14F0FF04F7D110F0E7FE304677
:1024300070BD70B505460C460D2010F00FFF284604
:1024400010F017FFE0B210F014FFC4F3072010F0F3
:1024500010FFC4F3074010F00CFF200E10F009FF2E
:10246000BDE8704010F0CABE01200BF059BE10B597
:1024700002F05EFD07F004FCBDE81040FFF7F4BF7A
:1024800010B50446012150200BF0E6FEC8B1002033
:102490000BF07AFE207000200BF076FE60700020BA
:1024A0000BF072FEA07001200BF06EFEE0700BF0DE
:1024B0000DFF002150200BF0CFFE0BF007FF012095
:1024C00010BD0BF003FF002010BDF8B50D46064609
:1024D0000BF04CFE6846FFF7D3FF040011D09DF8C7
:1024E00001009DF8001000EB0120C0F30D003080CA
:1024F0009DF803009DF8021000EB0120C0F38D0051
:1025000028800BF03BFE2046F8BD000030B50E4899
:102510000E4C00230078042234F81010401CC0B286
:102520000D46052800D3002034F810104D1BADB225
:10253000521E2B4412F0FF02F0D1C3F38F004FF470
:10254000FA71484330BD000000000020580100200F
:1025500010B50446124911F03DFB124911F084F9FF
:10256000214611F037FB104911F07EF9214611F098
:1025700031FB0E4911F078F9214611F02BFB0C4983
:1025800011F072F9214611F025FB0A4911F06CF99E
:10259000214611F01FFBBDE81040074911F064B956
:1025A00092EBD72CEEC70B310DBDA2343E5ADE376D
:1025B000774BBB3A45B8353D145C1C3F2DE9F047DD
:1025C0001F4690468946054600240CF047FC064607
:1025D0001348874202DA2846BDE8F087114890F890
:1025E000330018B14846FFF7B3FF0446414638466A
:1025F00011F03AF9214611F07DFC314611F0EAFA6A
:1026000004460949484611F02FF9084911F0E2FA49
:10261000294611F0DFFA2146BDE8F04711F098B9DC
:102620006F12833A304900203393884366A6CA422A
:102630002DE9F0411F4690460C4606460CF00EFC74
:1026400005460F49204611F00FF90E4911F0C2FA64
:1026500004464146384611F007F9294611F0BAFA06
:10266000214611F075F9314611F0B4FA0649884255
:1026700002DA0020BDE8F081BDE8F04110F080BA38
:102680003393884366A6CA426F12833A2DE9FF4FFF
:1026900087B090460F461D46182221496846FEF72E
:1026A000EAF80026012440F2013B40F2035941F6CA
:1026B0000C0A00BF0BF01EFE684603F015F958F82F
:1026C000251018A35A4640F2191008F0F1F937F80E
:1026D000151000234A46504608F010FA0022214601
:1026E000684603F02DF90446012807D0022C0ED0CD
:1026F000002CDFD10BB03046BDE8F08F2B464246B0
:102700003946079800F010F807E00126D2E707EBFA
:1027100045014A46504601F005FF0028CAD0F4E7BB
:10272000B0F101084C2F6D002DE9FF4F8FB0002054
:10273000059093481F460E4684880020029031F889
:10274000175008880D90B1F802B0B1F804A0B1F8A4
:1027500006904FF0010852F827008A4911F03AFA22
:102760004FF07C5111F080F811F0B4F984490F9AC0
:1027700001EB42010991888201210F9805F0C2FB0B
:102780000BF0B8FD80A1002003F086F8F580B5803D
:10279000758035807FA1002003F07EF8002340F291
:1027A00003522946192008F0A9F97DA14FF4406091
:1027B00003F072F80F980CF065FB01467AA340F223
:1027C000036240F60C4008F073F978A14FF4C05052
:1027D00003F062F80F9805F07FFB014641F60C000C
:1027E00008F0BCF964200CF0A1FB0028D2D00CF05A
:1027F000E5F911285CD008DC01281AD0042874D02F
:10280000092873D0102813D106E021286FD0402862
:1028100008D041280CD16BE042F20F70854205D2FE
:102820006D1C02E0632D01D96D1EADB20120059033
:102830008FE0099864210022808A48430321089090
:10284000880203F027F840F2036208A940F60C4022
:1028500001F076FE00287CD001200590089811F048
:1028600071F9039095B1284610F0C1FE514A524BC0
:1028700010F0D0FE05460191029810F0C9FF2A46DB
:10288000019B10F045FD10F011FD02E04B4911F0E5
:102890005FF8029010F0FF4F07D0DDE9021011F051
:1028A00057F811F017F985B253E04FF47A7550E0FC
:1028B00040F69800844201D2641CA4B26421112025
:1028C0000FF084F850B138E0641CA4B2204611F037
:1028D00039F93B4911F07EF901F030FB012111205B
:1028E0000FF074F80028EFD027E036E01BE020E07E
:1028F000C82C01D9641EA4B2642141200FF066F8EF
:1029000050B11AE0641EA4B2204611F01BF92C4904
:1029100011F060F901F012FB012141200FF056F88F
:102920000028EFD009E040F29E70844205D2643462
:1029300002E0DC2C01D9143CA4B2204611F002F9CB
:102940001F4911F047F901F0F9FA0D48848000F0B1
:102950004DFFB8F1000F7FF419AF00210F9805F07B
:10296000D1FA0D983080A6F802B0A6F804A0A6F817
:10297000069026F81750059813B0BDE8F08F0000B8
:102980003049002000002041B5F7CAD4C1F7C1BFCB
:1029900000000000C1F7C1BFB1B6C2CA3A000000D2
:1029A000C1F7C1BF3A0000004C2F6D00CAE4B3F676
:1029B0003A000000FCA9F1D24D62503F00007A4479
:1029C0000AD7233C2DE9F04F89B0834620223B49AA
:1029D0006846FDF750FF3A49002001EBCB07012480
:1029E0003C3740F203560890BBF1010F05D0BBF114
:1029F000020F02D040F2015A00E0B246314940F6DF
:102A00000C0801EB4B0541F60C0900BF0BF072FC02
:102A1000684602F069FF594640F2151008F0FCFACA
:102A2000A98A29A35246404608F068F8398800234D
:102A30003246484608F062F800222146684602F015
:102A40007FFF04000FD0012C24D0022C2DD0032CAA
:102A5000E6D132463946484601F064FD0028DFD011
:102A600001200890DCE7089800280AD0232117A04D
:102A700003F022FC062807D0072808D00124002CE8
:102A8000C4D109B0BDE8F08F00F0A0FAF9E700F07A
:102A900033FAF4E705F114015246404601F042FDD5
:102AA0000028BDD000F0A2FEBAE73946584600F033
:102AB00015F80028AAD001200890A7E790F1010896
:102AC000BC480020304900204C2F6D00B1A3B4E673
:102AD000B1EAB6A8CAFDBEDD203F00002DE9F04FE7
:102AE00080468BB0002007460990BF480D4640F253
:102AF0000356848800208246834608905FEA0800D7
:102B000005D0012852D0B8F1020F04D14EE040F2B6
:102B1000015A0FF2D82B0BF0EDFB0121404605F0D6
:102B2000F1F940460CF0AEF90646B8F1000F3FD07F
:102B3000AFA10020009602F0AFFE2988002340F2EA
:102B40000352192007F0DAFFACA14FF4406002F005
:102B5000A3FE5B465246314640F60C4007F0A8FF04
:102B6000A8A14FF4C05002F097FE404605F0B4F91A
:102B7000014641F60C0007F0F1FF64200CF0D6F995
:102B80000028CED00CF01AF811287DD03FDC0128A7
:102B900055D0042879D0092878D01028C1D12888A8
:102BA00042F20F71884248D2401C45E0B246B0E77D
:102BB0000CF016F881460CF01DF901464B46002238
:102BC0003046FFF7FBFC8146009089A1002002F00F
:102BD00063FE2988002340F20352192007F08EFF7C
:102BE0008AA14FF4006002F057FE5B465246494608
:102BF00040F60C0007F05CFF80A14FF4805002F01B
:102C00004BFE5B465246314641F20C00A6E72128B6
:102C100071D040280CD0412883D1C82C01D9641E22
:102C2000A4B2642141200EF0D1FE002872D0C4E08D
:102C30002888632801D9401E2880012771E76A4847
:102C4000B8F1000F00EB48004FF00002808A0890B6
:102C50004FF0030128D0880202F01CFE524608A95A
:102C600040F60C4001F06CFC0028E7D001270898E2
:102C700010F068FF06462888E0B310F0B8FC654AFB
:102C8000654B10F0C7FC02E05BE0A5E08BE08146FD
:102C90000691009810F0BCFD4A46069B10F038FBE8
:102CA00010F004FB01463FE04FF4006002F0F2FD3B
:102CB000524608A940F60C0001F042FC0028BDD0A5
:102CC0000127089810F03EFF81462888A0B110F037
:102CD0008EFC504A504B10F09DFC06460491009823
:102CE00010F096FD3246049B10F012FB10F0DEFA55
:102CF000064602E017E05CE04E4616F0FF4F0AD0B1
:102D00004649484610F066FF314610F021FE10F0AB
:102D1000E1FE02E03FE04FF47A70288040460CF07C
:102D2000B1F8064644E7314611F0FF4F05D0304672
:102D300010F00EFE10F0CEFE01E04FF47A70288005
:102D4000EFE640F69800844201D2641CA4B26421EC
:102D500011200EF03BFE58B12FE0641CA4B22046B7
:102D600010F0F0FE314610F035FF01F0E7F800E01A
:102D70002B4E012111200EF029FE0028EDD01CE081
:102D8000641EA4B2204610F0DDFE314610F022FF92
:102D900001F0D4F800E0224E012141200EF016FE91
:102DA0000028EDD009E040F29E70844205D26434E0
:102DB00002E0DC2C01D9143CA4B2204610F0C2FE83
:102DC000174910F007FF01F0B9F80748848000F0B8
:102DD0000DFD09980028B3D00021404605F092F877
:102DE0000BB03846BDE8F08F304900204C2F6D0005
:102DF000C1F7C1BFB1B6C2CA3A000000B1EABFF61E
:102E00003A000000CAE4B3F63A000000B9A4BFF6E5
:102E10003A000000FCA9F1D24D62503F0000C842C8
:102E20000AD7233C2DE9F0472B49804601EB0800E7
:102E30002A4990F82460012401EBC800002500F124
:102E40003C0A012E16D0022E43D1254FDFF8949074
:102E50000BF050FA384602F047FD00222146384672
:102E600002F06EFD0446052831D2DFE800F00618B6
:102E70001E282C001A4F283FE8E7002D29D02321D7
:102E800019A003F019FA062805D0072821D1BDE8BA
:102E9000F04700F031B8BDE8F04700F097B809EB13
:102EA0000612002304E00125D2E709EB06120123F4
:102EB00051464046FFF7EAFB0028C9D0F3E709EB8B
:102EC00006120223F4E709EB06120323F0E7002CB5
:102ED000BED1BDE8F087000030490020BC4800208A
:102EE000F0F10108A8F00108B1A3B4E6B1EAB6A870
:102EF000CAFDBEDD203F000010B5062231494FF467
:102F0000807001F023FD2F4845F6A5214FF47A7417
:102F100082888A4203D0E20002804480818072224B
:102F20002949802001F012FD274845F6A422B0F877
:102F30007010914244D046F6B321A0F86410A0F876
:102F40006810A0F86C10A0F86640A0F86A40A0F8DD
:102F50006E4041818181C181018241820485448525
:102F60008485C48504864FF40041018041808180BE
:102F7000C18001818182C182018341838183C483B5
:102F8000048444848484C48444868486C4860487F8
:102F900044878487A0F84440A0F84C40A0F85440EF
:102FA000A0F85640A0F85840A0F85A40A0F85C405D
:102FB000A0F85E40A0F86040A0F86240A0F8702041
:102FC00010BD000028010020BC48002010B50622DA
:102FD00005494FF4807001F0C9FC7222BDE8104031
:102FE0000249802001F0C2BC28010020BC4800201A
:102FF00010B503F0F1F905A140F60E0002F04CFC0B
:103000000221BDE81040012002F054B9C8D5BEF934
:1030100020D7D4B6AFB5F7C1E300000010B503F078
:10302000DBF905A140F60E0002F036FC0421BDE8F4
:103030001040032002F03EB9CAB1BEF920D7D4B681
:10304000AFB5F7C1E300000010B503F0C5F905A165
:1030500040F60E0002F020FC0021BDE810400846BA
:1030600002F028B9B7DBB3BE20D7D4B6AFB5F7C1ED
:10307000E300000010B50BF03DF905A140F202405D
:1030800002F00AFC0221BDE81040012001F0AABFB5
:10309000C8D5BEF9202020D7D4B6AFB5F7C1E3001C
:1030A00010B50BF027F905A140F2024002F0F4FB45
:1030B0000421BDE81040032001F094BFCAB1BEF95D
:1030C000202020D7D4B6AFB5F7C1E30010B50BF080
:1030D00011F905A140F2024002F0DEFB0021BDE83B
:1030E0001040084601F07EBFB7DBB3BE202020D7DA
:1030F000D4B6AFB5F7C1E3002DE9F14F88B018227F
:1031000078496846FDF7B7FB774808990125848818
:1031100076484FF4A06800EB410606F114073236FA
:10312000002041F20C0940F2035A41F60C0B0690C4
:1031300001E0079858B10BF0DDF8684602F0D4FBC7
:1031400040F21510089907F067FF002007903988B2
:1031500000234246484607F0D1FC318800235246FE
:10316000584607F0CBFC2946684602F0ADFB60A14B
:103170004FF4006002F090FB08980BF01DFE014632
:103180005DA340F2026240F60C0007F091FC1920AA
:103190000BF0CCFE0028EAD02946684602F094FBEA
:1031A0000BF00CFD112849D008DC012819D00428A7
:1031B0002ED009287CD0102817D10CE021287DD0F2
:1031C000402802D0412810D155E06D1CEDB2032DEE
:1031D0000BD3012509E0012D00D803256D1EEDB2AA
:1031E00003E0012D06D0022D08D0002DAFD109B08B
:1031F000BDE8F08F42463946484602E05246314625
:10320000584601F08FF90028A1D0012006909EE7D2
:1032100006980028EBD0232138A003F04DF80628AB
:1032200002D0072806D102E0FFF7D0FEDFE7FFF764
:1032300063FE0025002D7FF47BAFD8E740F69800B1
:10324000844201D2641CA4B2642111200EF0BEFBA2
:1032500050B137E0641CA4B2204610F073FC2B4937
:1032600010F0B8FC00F06AFE012111200EF0AEFB58
:103270000028EFD026E0C82C01D9641EA4B2642136
:1032800041200EF0A3FB50B11CE0641EA4B2204606
:1032900010F058FC1D4910F09DFC00F04FFE01217C
:1032A00041200EF093FB0028EFD00BE000E005E09A
:1032B00040F29E70844205D2643402E0DC2C01D9D5
:1032C000143CA4B2204610F03DFC104910F082FCE2
:1032D00000F034FE0448848000F088FA002D7FF46A
:1032E00028AF84E760F1010830490020BC48002085
:1032F000BCC6D1B93A0000006B506100B1A3B4E67E
:10330000B1EAB6A8CAFDBEDD203F00000AD7233CC3
:103310002DE9F14F774882B00125848876480299DB
:1033200040F2026700EB410606F10A082836002049
:1033300041F20C0B40F2035941F60C0A009001E0F7
:10334000019858B10AF0D6FF6C4802F0CDFA40F26D
:103350001510029907F060FE00200190B8F80010E7
:1033600000233A46584607F0C9FB318800234A46F5
:10337000504607F0C3FB2946604802F0A5FA60A159
:103380004FF4006002F088FA02980BF035FD014618
:103390005DA33A4640F60C0007F08AFB19200BF0BB
:1033A000C5FD0028EBD02946544802F08DFA0BF0F9
:1033B00005FC112849D008DC012819D004282DD09B
:1033C00009287CD0102817D10CE021287DD0402876
:1033D00002D0412810D155E06D1CEDB2032D0BD366
:1033E000012509E0012D00D803256D1EEDB203E093
:1033F000012D05D0022D07D0002DAFD1BDE8FE8FE5
:103400003A464146584602E04A463146504601F0A7
:1034100089F80028A2D0012000909FE7009800289A
:10342000ECD0232139A002F047FF062802D007285C
:1034300007D103E0BDE8FE4FFFF7C8BDFFF75CFD15
:103440000025002D7FF47BAFD8E740F6980084423A
:1034500001D2641CA4B2642111200EF0B7FA50B15D
:1034600037E0641CA4B2204610F06CFB2B4910F02E
:10347000B1FB00F063FD012111200EF0A7FA002836
:10348000EFD026E0C82C01D9641EA4B264214120EB
:103490000EF09CFA50B11CE0641EA4B2204610F05D
:1034A00051FB1E4910F096FB00F048FD0121412020
:1034B0000EF08CFA0028EFD00BE000E005E040F2BF
:1034C0009E70844205D2643402E0DC2C01D9143CA5
:1034D000A4B2204610F036FB104910F07BFB00F040
:1034E0002DFD0448848000F081F9002D7FF428AF81
:1034F00084E7000030490020BC48002048F1010862
:10350000CEC2B6C83A000000A1E60000B1A3B4E6FE
:10351000B1EAB6A8CAFDBEDD203F00000AD7233CB1
:103520002DE9F14F88B0182278496846FDF7A3F9D4
:10353000774808990125848876484FF4A06800EB05
:103540004107002007F11E0641F20C0940F2035A20
:1035500041F60C0B069001E0079858B10AF0CAFE3C
:10356000684602F0C1F940F21510089907F054FDC1
:1035700000200790398800234246484607F0BEFAEB
:10358000318800235246584607F0B8FA2946684663
:1035900002F09AF960A14FF4006002F07DF90898FA
:1035A0000BF0A4FC01465EA340F2036240F60C005F
:1035B00007F07EFA19200BF0B9FC0028EAD0294662
:1035C000684602F081F90BF0F9FA112849D008DCBD
:1035D000012819D004282ED009287CD0102817D112
:1035E0000CE021287DD0402802D0412810D155E0A0
:1035F0006D1CEDB2032D0BD3012509E0012D00D880
:1036000003256D1EEDB203E0012D06D0022D08D07A
:10361000002DAFD109B0BDE8F08F4246394648468B
:1036200002E052463146584600F07CFF0028A1D007
:10363000012006909EE706980028EBD0232139A0B0
:1036400002F03AFE062802D0072806D102E0FFF772
:10365000BDFCDFE7FFF750FC0025002D7FF47BAFBA
:10366000D8E740F69800844201D2641CA4B26421D9
:1036700011200EF0ABF950B137E0641CA4B2204623
:1036800010F060FA2B4910F0A5FA00F057FC012168
:1036900011200EF09BF90028EFD026E0C82C01D9AC
:1036A000641EA4B2642141200EF090F950B11CE0D8
:1036B000641EA4B2204610F045FA1E4910F08AFAA2
:1036C00000F03CFC012141200EF080F90028EFD0F1
:1036D0000BE000E005E040F29E70844205D26434C5
:1036E00002E0DC2C01D9143CA4B2204610F02AFAE6
:1036F000104910F06FFA00F021FC0548848000F0BA
:1037000075F8002D7FF428AF84E7000078F10108F8
:1037100030490020BC480020B2EED1B93A00000088
:103720006B506100B1A3B4E6B1EAB6A8CAFDBEDD34
:10373000203F00000AD7233C70B5442207494FF4CC
:10374000C07001F003F9054C45F2B755A08EA842B0
:1037500002D000F005F8A58670BD000030490020B9
:10376000AFF3008030B51F480022012102704FF4F2
:103770007A7480F82410848280F82510C823C382CC
:1037800080F82610038380F827100523438380F8F0
:103790002810838380F829206510C583038443841F
:1037A00001724FF49673838182734272F0234381D6
:1037B000C1738170C270017442F2957343826300D9
:1037C0008380322383710223C3718485C48564237B
:1037D000038680F8332080F8322080F83C100249BC
:1037E000016430BD30490020D9AB090044220249B0
:1037F0004FF4C07001F0BAB8304900202DE9F05FF5
:1038000000253A4C2E4640F2015740F611484FF43D
:10381000AF6A41F211494FF4FA6B00BF0AF06AFD3A
:10382000334802F061F8A18A32A33A46404607F0D5
:1038300065F9618D31B131A340F20252484607F07B
:103840005DF903E02FA1484602F026F86D1CE9B2AD
:103850000022274802F074F805001AD0012D2ED05E
:10386000022DE0D1618D25A340F20252484607F0B7
:1038700045F91E4940F202522A31484600F052FEF4
:103880000028D0D0618D594501D9A4F82AB001266D
:10389000C9E7002E27D023211EA002F00DFD02282B
:1038A0000BD0062805D007281DD1BDE8F05FFFF733
:1038B00043BFBDE8F05FFFF799BF0125AEE70B49B5
:1038C0003A461431404600F02DFE0028ABD0A08AC5
:1038D000504502D9A4F814A0D9E74FF416718842D4
:1038E000D5D2A182D3E7BDE8F09F00003049002087
:1038F00020F40108204C2F6D00000000206B506167
:10390000000000002020205BCDA3D3C35D20202039
:1039100000000000B1A3B4E6D0DEB8C4BDE1B9FB3D
:10392000203F00002DE9F05F0025344C2F4640F683
:103930000F4840F2035641F20F494FF4967A4FF088
:10394000640B00BF0AF0D6FC2D4801F0CDFFE18AE0
:103950002CA33246404607F0D1F8218B29A33246EA
:10396000484607F0CBF86D1CE9B20022244801F06C
:10397000E7FF050011D0012D25D0022DE7D11F4909
:1039800032461831484600F0CDFD0028DFD0218BAB
:1039900051452BD9A4F818A02CE0002F2CD02321BE
:1039A0001AA002F089FC02280BD0062805D00728AF
:1039B00022D1BDE8F05FFFF7BFBEBDE8F05FFFF7C3
:1039C00015BF0125BEE70D4932461631404600F0CD
:1039D000A9FD0028BBD0E18A514502D9A4F816A060
:1039E00008E0642906D2A4F816B003E0642901D2E5
:1039F000A4F818B00127AAE7BDE8F09F30490020DD
:103A000008F40108204C2F6D00000000B1A3B4E6BB
:103A1000D0DEB8C4BDE1B9FB203F00002DE9F05F66
:103A20000025564C2F4640F60F0940F2035640F64B
:103A30000F4B40F2015841F20F2A00BF0AF05AFC26
:103A40004F4801F051FFE18A4EA33246484607F045
:103A500055F8218B4BA33246584607F04FF8A18A00
:103A600048A34246504607F049F8618D39B147A353
:103A700040F2025241F2116007F040F804E045A123
:103A800041F2116001F008FF6D1CE9B200223C48D0
:103A900001F056FF054605286CD2DFE800F0031957
:103AA0002D465900002F67D023213EA002F004FCD0
:103AB00002280BD0062805D007285DD1BDE8F05FAD
:103AC000FFF73ABEBDE8F05FFFF790BE0125B5E70E
:103AD0002A4932461631484600F024FD0028B2D06B
:103AE000E08A4FF49671884201D9E18240E064286F
:103AF0003ED26420E0823BE024A140F61C4001F06D
:103B0000CBFE1E4932461831584600F00BFD002806
:103B100099D0208B4FF49671884201D9218327E0F8
:103B2000642825D26420208322E0144942461431BF
:103B3000504600F0F7FC002885D0A08A4FF4AF6112
:103B4000884203D84FF41671884211D2A1820FE047
:103B50000A4940F202522A3141F2116000F0E2FCBF
:103B60000028BCD0618D4FF4FA60814200D9608595
:103B7000012768E7002DFCD1BDE8F09F3049002007
:103B800038F40108204C2F6D00000000206B5061BC
:103B9000000000005BCDA3D3C35D202020202020A7
:103BA00000000000B1A3B4E6D0DEB8C4BDE1B9FBAB
:103BB000203F00002DE9F84FDFF8ECB0012500268A
:103BC0009BF80940BBF80A00ADF8000040F201572D
:103BD00041F21648DFF8D49040F6164A0AF08AFB04
:103BE0003248183001F080FE04EB440109EB41013A
:103BF000504601F051FE2EA33A46BDF80010404653
:103C000006F07CFF294800222946183001F098FE72
:103C1000050023D0012D1DD0022DE5D13A4669467D
:103C2000404600F07FFC0028DED0BDF8000096285A
:103C300004D29620ADF800000AF069FABDF8001031
:103C40004FF49670814203D9ADF800000AF05FFA94
:103C50000126C9E7641C04F00304F9E7002E0BD029
:103C6000232114A002F028FB02281AD0062805D030
:103C7000072801D1FFF760FDBDE8F88F8BF80940F8
:103C8000BDF800005D46ABF80A00FFF7AFFD68899C
:103C90000FF058FF0B490FF09DFF697A0EF0C2FC40
:103CA000EAE701259AE700003049002068F301089F
:103CB000A1E60000B1A3B4E6C5E4D6C3CAFDBEDDEB
:103CC000203F0000CDCCCC3D2DE9F84F3F4E0125E3
:103CD000DFF8FC90B47BB089ADF80000002740F21B
:103CE000015A4FF4AF7840F6194B00BF0AF002FBBF
:103CF00034B13748803001F0F7FD012C05D00CE0DD
:103D00003348983001F0F0FD07E032A35246BDF889
:103D1000001040F6144006F0F1FE59F82410584601
:103D200001F0BAFD4FF00002294634B32848803034
:103D300001F006FE050028D0012D21D0022DDCD196
:103D4000012CD3D15246694641F6140000F0EAFB3B
:103D50000028CBD0BDF80000962804D29620ADF8FC
:103D600000000AF0D4F9BDF80010414503D9ADF8C0
:103D700000800AF0CCF90127B8E715489830D7E75A
:103D80000CB10024F7E70124F5E7002F0BD0232125
:103D900011A002F091FA022816D0062805D00728B3
:103DA00001D1FFF7C9FCBDE8F88FBDF80000B08174
:103DB000B473FFF71BFDB0890FF0C4FE0A490FF082
:103DC00009FF0EF043FCEEE701258FE730490020A4
:103DD00018F30108A1E60000B1A3B4E6C5E4D6C318
:103DE000CAFDBEDD203F0000CDCCCC3D2DE9F05F0B
:103DF00000252D4F2D4C2E4640F60B0AA7F110083A
:103E000040F60B7BA94600BF0AF074FA26487030D2
:103E100001F06AFD607857F82010504601F03CFD33
:103E2000207858F82010584601F036FD1E48002230
:103E30002946703001F084FD05001FD0012D06D009
:103E4000022D0FD0032DDFD103F028FEDCE70AF0AE
:103E500051FA6078401CC0B2607006280CD384F818
:103E6000019009E00AF046FA2078401CC0B22070A8
:103E7000042801D384F800900126C5E77EB12321F0
:103E80000BA002F019FA062803D0072807D0012555
:103E9000BAE7FFF767FCBDE8F05FFFF7A7BCBDE836
:103EA000F05FFFF749BC0000C0ED01083049002079
:103EB000B1A3B4E6D0DEB8C4BDE1B9FB3F00000059
:103EC0002DE9FF5F00249B4691468A4626462546FB
:103ED0003AF814000FF036FE17490FF07BFEB0469B
:103EE00059F8246001462F4630460FF031FD054653
:103EF000014600980FF03AFF03D2641CE4B25C451F
:103F0000E6D3394628460FF0F5FF044641463046D1
:103F10000FF0F0FF21460FF01BFD044639460098D4
:103F20000FF0E8FF21460FF055FE04B04146BDE812
:103F3000F05F0FF099BC00006F12833A01494860AE
:103F4000704700002800002001490870FDF786BE78
:103F5000280000200A4980B1012806D0022807D095
:103F6000032808D04FF0FF3007E043F6982004E024
:103F700047F2305001E04EF6602048607047000084
:103F80000800002005F02CBBC0B2202800D27F2002
:103F9000024901EB0010A0F500707047DE400108F7
:103FA000C0B2202800D27F20034900EB400001EB83
:103FB0000010A0F5C0607047B8AA0108004870471B
:103FC000DE46010870B5C0B2114D60F31F21012318
:103FD0004FF4AC729818400805EB400415F81060D7
:103FE000647804EB0624A4B2A14205D1094900EB90
:103FF000C00001EBC00070BD03D900F1010083B225
:1040000002E0A0F1010082B29342E3D9014870BD01
:10401000FE460108B049010870B50C460646154633
:104020000021A0200AF018F960B1300A0AF0E2F885
:1040300040B1F0B20AF0DEF820B10121A0200AF070
:104040000BF948B90AF042F9002070BD00200AF0CF
:104050009BF8C04304F8010B6D1E15F0FF05F5D168
:1040600001200AF091F8C04320700AF02FF90120D6
:1040700070BD000070B50C46064615460021A02014
:104080000AF0EAF808B3300A0AF0B4F8E8B1F0B27E
:104090000AF0B0F8C8B100BF14F8010BC043C0B2B9
:1040A0000AF0A8F888B16D1E15F0FF05F4D10AF0EA
:1040B0000DF9A0254FF4C874002128460AF0CCF869
:1040C00030B10AF003F9012070BD0AF0FFF803E0F7
:1040D000641E2404240CEFD1002070BD10B501F043
:1040E000A7FA10BD03490120087003494003086086
:1040F00070470000380000201404014010B501F0A2
:1041000097FA10BD10B501F093FA10BD10B501F08B
:104110008FFA10BD10B501F08BFA10BD10B501F08B
:1041200087FA10BD2DE9F34FDFF808928B4691B066
:104130000126B9F8044001A95846FCF7E9FC0698A5
:10414000DFF8F4A100F26C7085B20598401C00F015
:10415000FF080498C7B243462A4678A10CA80097E6
:10416000FCF736F90CA9119801F096FB012E04D04A
:10417000022E06D0032E09D118E000220421119846
:1041800002E011980A3013E001F084FB0AF016FDFA
:1041900011286AD024DC082869D00DDC012873D0EE
:1041A0000428D8D1002013B0BDE8F08F119810304A
:1041B000002280B20221E7E7092873D01028CAD173
:1041C000012E1FD0022E26D0032EC4D141462846F0
:1041D0000AF092F87F1CFFB2B842BCD20127BAE7BE
:1041E00020284AD021287BD040281DD04128B2D198
:1041F000C82C01D9641EA4B2642141200DF0E6FB55
:1042000090B389E06D1CADB240F633008542A2D96F
:104210004FF4FA659FE708F1010000F0FF08B8F1DC
:104220000C0F98D901201DE0012E0DD0022E13D0C5
:10423000032E90D17F1E17F0FF078CD141462846F0
:104240000AF05AF8074686E76D1EADB2B5F5FA6F6B
:1042500081D240F633057EE7A8F1010010F0FF0897
:10426000BDD10C20804676E745E01CE0FFE7761CD8
:10427000F6B2032EB3D901266DE7761E16F0FF06BF
:10428000ADD1032667E7FFE7A5F26C75A8F1010041
:104290000497CDE9050501A8FCF783FBCBF80000E6
:1042A000012080E72EE040F69800844201D2641C91
:1042B000A4B2642111200DF089FB50B12CE0641CE4
:1042C000A4B220460FF03EFC51460FF083FCFFF7EE
:1042D00035FE012111200DF079FB0028EFD01BE005
:1042E00016E0641EA4B220460FF02CFC51460FF0DD
:1042F00071FCFFF723FE012141200DF067FB002830
:10430000EFD009E040F29E70844205D2643402E0AE
:10431000DC2C01D9143CA4B220460FF013FC51460A
:104320000FF058FCFFF70AFEA9F80440FFF75EFA09
:1043300011E70000304900200AD7233C25303475AE
:104340002D253032752D2530327500002DE9F04FC6
:104350006E4F884691B08346BC88012501A940462E
:10436000FCF7D6FB6A4E4FF0180A4FF03C09019853
:10437000DDE90232009067A10CA8FCF729F80CA92E
:10438000584601F089FA012D04D0022D06D0032DE4
:1043900009D118E000220221584602E00BF1060084
:1043A00013E001F077FA0AF009FC112868D01DDC4F
:1043B000082851D00DDC01285BD00428D7D100207B
:1043C00011B0BDE8F08F0BF10C00002280B2022189
:1043D000E7E7092871D01028C9D1012D18D0022D86
:1043E00019D0032DC3D10198401C1FE0202839D0DB
:1043F00021287BD0402811D04128B8D1C82C01D920
:10440000641EA4B2642141200DF0E0FA80B371E093
:104410000398401C12E00298401C17E0012D0BD0BD
:10442000022D11D0032DA2D101983B30B0FBF9F23F
:1044300009FB120001909AE703981730B0FBFAF2DB
:104440000AFB1200039092E702983B30B0FBF9F2AE
:1044500009FB120002908AE76D1CEDB2032D86D98C
:10446000012584E76D1E15F0FF0580D103257EE749
:104470002EE001A8FCF795FAC8F8000001209FE79C
:1044800040F69800844201D2641CA4B26421112039
:104490000DF09CFA50B12DE0641CA4B220460FF040
:1044A00051FB31460FF096FBFFF748FD012111202B
:1044B0000DF08CFA0028EFD01CE011E0641EA4B2CD
:1044C00020460FF03FFB31460FF084FBFFF736FD2F
:1044D000012141200DF07AFA0028EFD00AE005E032
:1044E00040F29E70844205D2643402E0DC2C01D993
:1044F000143CA4B220460FF025FB31460FF06AFBB6
:10450000FFF71CFDBC80FFF771F930E73049002050
:104510000AD7233C253032753A253032753A25309A
:104520003275000038B50C4609880091694600F0E4
:1045300007F8002802D000982080012038BD000034
:104540002DE9F74F90B000251198904612F0FF0723
:104550000168724884884FEA1220814601D0A9F18F
:104560000100C6B26E48A6EB070A50F82600B1FB60
:10457000F0F200FB121B58460FF0E4FA68492831AC
:1045800051F827100FF0E4F90FF042F9CDE90001DE
:1045900008F0FF034A4663A10AA8FBF719FF0AA91E
:1045A000109801F079F91098AA4500EB450000DC5D
:1045B000801C80B20022012101F06CF9681C00907F
:1045C000864206D35648711B00EB810050F8040C5C
:1045D00000E0012001900AF0F1FA112857D01CDC0C
:1045E000082843D007DC01284CD00428C3D1002080
:1045F00013B0BDE8F08F092879D01028BBD10199FC
:104600000A20BBFBF1F1B1FBF0F200FB121009280C
:1046100015D001990BEB010020E020282AD0212899
:104620006BD040280ED04128A5D1C82C01D9641EDA
:10463000A4B2642141200DF0C9F9A0B361E0019852
:1046400040420EE001990A20BBFBF1F1B1FBF0F210
:1046500000FB121020B10199ABEB010083468AE701
:10466000019800EBC00101EB0B00F7E70098B0FBED
:10467000F6F103E0A819401E90FBF6F106FB1100CD
:10468000C5B278E711990120C1F800B0B0E740F653
:104690009800844201D2641CA4B2642111200DF060
:1046A00095F958B12DE01AE0641CA4B220460FF031
:1046B00049FA1E490FF08EFAFFF740FC0121112044
:1046C0000DF084F90028EFD01BE0641EA4B2204650
:1046D0000FF038FA15490FF07DFAFFF72FFC012192
:1046E00041200DF073F90028EFD00AE0FFE740F217
:1046F0009E70844205D2643402E0DC2C01D9143C63
:10470000A4B220460FF01EFA08490FF063FAFFF733
:1047100015FC02488480FFF769F82CE73049002037
:1047200028EC010825302A2E2A6600000AD7233CEF
:104730002DE9F35F0A8889464FF03C0BB2FBFBF191
:104740006423B1FBF3F4DFF8FCA103FB14160BFBAD
:104750001125BAF804404FF000080127C6EB0610F7
:1047600005EB8001009806F089FC012F06D0022F8E
:1047700008D0032F18D0042F09D118E000220121FE
:10478000009802E00098801C13E001F083F80AF022
:1047900015FA11287FD015DC082861D00DDC01281E
:1047A0006CD004285BD172E00098801D01E0009875
:1047B0000830002280B20121E7E7092877D01028CD
:1047C0004DD108E0202851D0212871D0402813D0A5
:1047D000412844D17EE0012F06D0022F06D0032FBE
:1047E00006D0042F3BD105E00A360FE0711C15E01E
:1047F0000A3521E0691C26E0012F06D0022F0BD0DC
:10480000032F18D0042F2AD11BE05A366420B6FBA0
:10481000F0F100FB1166A1E706F109010A20B1FBE6
:10482000F0F200FB1211B6FBF0F000EB800001EBA0
:104830004000C6B292E73235B5FBFBF10BFB1155D8
:104840008CE705F109010A20B1FBF0F200FB12111F
:10485000B5FBF0F000EB800001EB4000C5B26AE070
:104860007F1CFFB2042F66D9012764E07F1E17F07A
:10487000FF0760D104275EE00DE0FFE7C6EB0610FE
:1048800005EB8001A9F800104FF0010856E04FF049
:10489000000847464FE040F69800844201D2641C6D
:1048A000A4B2642111200DF091F860B137E02CE042
:1048B00031E0641CA4B220460FF044F922490FF005
:1048C00089F9FFF73BFB012111200DF07FF800284B
:1048D000EFD024E0C82C01D9641EA4B26421412089
:1048E0000DF074F850B11AE0641EA4B220460FF027
:1048F00029F915490FF06EF9FFF720FB012141203E
:104900000DF064F80028EFD009E040F29E70844278
:1049100005D2643402E0DC2C01D9143CA4B2204658
:104920000FF010F908490FF055F9FFF707FBAAF847
:104930000440FEF75BFF002F7FF46DAF4046BDE8FB
:10494000FC9F0000304900200AD7233C70B5144674
:104950000D46064609F00AFCE2B229463046FFF74A
:104960005BFB044609F00AFC204670BD70B5144696
:104970000D46064609F0FAFBE2B229463046FFF73B
:1049800079FB044609F0FAFB204670BD10B51BA068
:10499000FDF7F4F910221B491BA0FDF711FA302294
:1049A000102119A0FDF760F91BA0FDF7E7F910220F
:1049B00014491BA0FDF704FA4022102118A0FDF7AE
:1049C00053F91BA0FDF7DAF910220E491AA0FDF7E2
:1049D000F7F97022102118A0FDF746F91AA0FDF78B
:1049E000CDF9102207491AA0FDF7EAF97022BDE8B7
:1049F0001040102116A0FDF737B900005C53445F4A
:104A000041495200BA0000205C53445F4149525C66
:104A10004149522E545854005C53445F5453500043
:104A20005C53445F5453505C5453502E54585400BC
:104A30005C53445F523234005C53445F5232345C06
:104A40005232342E545854005C53445F534849004A
:104A50005C53445F5348495C5348492E54585400B2
:104A600030B5ADF5017D4FF400752A4649496846D9
:104A7000FBF701FF40F60A4447A1204600F00CFF77
:104A80000F23484A002148A0FDF73CF900286DD0CB
:104A90000F2244496846FBF752FE20B12A46694678
:104AA00041A0FDF78DF945A1204600F0F5FE0F234A
:104AB0003C4A002144A0FDF725F900285AD00F22D6
:104AC00038496846FBF73BFE20B12A4669463EA0BE
:104AD000FDF776F941A1204600F0DEFE0F23314AB2
:104AE000002141A0FDF70EF9002847D00F222D49E3
:104AF0006846FBF724FE20B12A4669463AA0FDF736
:104B00005FF93EA1204600F0C7FE0F23254A002191
:104B10003DA0FDF7F7F8002834D00F222149684660
:104B2000FBF70DFE20B12A46694637A0FDF748F98C
:104B30003AA1204600F0B0FE0F231A4A00213BA004
:104B4000FDF7E0F8002821D00F2216496846FBF750
:104B5000F6FD20B12A46694634A0FDF731F938A1A7
:104B6000204600F099FE0DF5017D30BD38A0FDF71F
:104B700005F993E739A0FDF701F9A6E73AA0FDF79B
:104B8000FDF8B9E73BA0FDF7F9F8CCE73CA0FDF74D
:104B9000F5F8DFE728EA01084C6F6164696E672E5B
:104BA00000000000704600205C5553425F414952AE
:104BB0005C4149522E545854000000004C6F61640F
:104BC000696E672E2E0000005C5553425F545350AF
:104BD0005C5453502E545854000000004C6F6164D4
:104BE000696E672E2E2E00005C5553425F523234A0
:104BF0005C5232342E545854000000004C6F6164F3
:104C0000696E672E2E2E2E005C5553425F53484925
:104C10005C5348492E545854000000004C6F6164A6
:104C2000696E672E2E2E2E2E000000005C5553421A
:104C30005F504F575C504F5745522E545854000008
:104C40004C6F6164696E672E2E2E2E2E2E00000092
:104C50005C5553425F414952000000005C5553428D
:104C60005F545350000000005C5553425F52323491
:104C7000000000005C5553425F53484900000000AB
:104C80005C5553425F504F570000000010B50C4672
:104C900041010C23224603A004F052FB002800D15E
:104CA000206010BD5C53445F4149525C4149522E23
:104CB0005458540010B50C4681014023224603A0ED
:104CC00004F03EFB002800D1206010BD5C53445F1F
:104CD0005232345C5232342E5458540010B50C46C3
:104CE00081014023224603A004F02AFB002800D1C2
:104CF000206010BD5C53445F5348495C5348492EC3
:104D00005458540010B50C4600EB8000C100242319
:104D1000224603A004F014FB002800D1206010BD3F
:104D20005C53445F5453505C5453502E54585400B9
:104D300070B50C46054664210848FBF7CEFD0748D0
:104D400021680246016061684160A1688160690173
:104D5000BDE87040202302A004F0F4BA084400200B
:104D60005C53445F4149525C4149522E54585400AF
:104D700070B50D46044664210748FBF7AEFD40229E
:104D800029460548FBF732FDA101BDE870404023EC
:104D9000014A02A004F0D6BA084400205C53445FE4
:104DA0005232345C5232342E5458540070B50D4691
:104DB000044664210748FBF790FD40222946054838
:104DC000FBF714FDA101BDE870404023014A02A099
:104DD00004F0B8BA084400205C53445F5348495C6F
:104DE0005348492E5458540070B50D46044664216A
:104DF0000848FBF772FD242229460648FBF7F6FC1B
:104E000004EB8400BDE87040C1002823014A02A0E1
:104E100004F098BA084400205C53445F5453505C3B
:104E20005453502E5458540070B58CB00D4604465F
:104E3000302226496846FBF71EFD25492846FBF728
:104E400067FE234822492C30C368CA6893423BD08E
:104E50004B6903F26C7343610969491CC0E9032182
:104E600061696422481E90FBF2F3C51700EB95754B
:104E7000C3EBA503950090FBF5F633448E070ED1E6
:104E800091FBF2F602FB161222B991FBF5F205FB3B
:104E9000121121B92169022901DD012100E000215F
:104EA00022696D4605EB8202E56852F8042C2A441B
:104EB00040F26D1500FB053010440844072190FBBB
:104EC000F1F201FB1200A0610CB070BD78EC01089A
:104ED0003847002070B5144C144E2046217A457A8C
:104EE0004089012915D0022909D003291BD10EF0D0
:104EF00029FE31460EF06EFE29460DF093FBA08987
:104F00000EF020FE31460EF065FEBDE870400DF05B
:104F10009DBB0EF017FE31460EF05CFE2946BDE843
:104F200070400DF07FBB70BD30490020CDCCCC3D32
:104F30001148816941F001018161104920204861D7
:104F40000F48016821F400510160001F016821F43D
:104F50005C4101600A49091D0A680A60091D0A6866
:104F600042F400520A60064A41141032116001688E
:104F700041F4005101607047001002400000014000
:104F80000404014008B50020009001F025FA08A1B2
:104F900040F6162000F080FC4FF4C062694641F2F2
:104FA0001620FFF7CDFA002800D0009808BD0000B9
:104FB000CAE4C8EBC3DCC2EB3A000000042801D00D
:104FC0000420704703207047022805D0032805D02D
:104FD000042805D002207047032070470420704742
:104FE000012070472DE9F04F0746AA48884699B03E
:104FF000848805A91691A8480AA9149100260FA92A
:10500000354600EB480A00EB47091591B9F8261020
:1050100068462DF8161000EB4600BAF8261081827B
:10502000B9F81A100185761CBAF81A10F6B2818701
:105030000A2E02D025B10A2103E000260125FAE755
:105040003146684609F054F8DFF850B22BF81700E3
:105050000DB10A2100E03146169809F049F82BF805
:1050600018000DB10A2100E03146149809F040F80B
:105070008A4901EB470BABF814000DB10A2100E09F
:105080003146159809F034F88449474501EB480149
:105090001791888232D10DB10A2100E0314668466D
:1050A00009F026F801467D4820F817100DB10A21B5
:1050B00000E03146149809F01BF8ABF8140078A111
:1050C00040F6044000F0E8FB384609F00FFF0146C7
:1050D00040F2026B00235A4641F2035005F0E8FC0F
:1050E00071A140F6184000F0D7FB384609F064FE85
:1050F000014600235A4641F2175058E00DB10A21EB
:1051000000E03146684608F0F3FF644921F81700D3
:105110000DB10A2100E03146169808F0E9FF01467A
:105120005E4820F818100DB10A2100E031461498AD
:1051300008F0DEFFABF814000DB10A2100E03146A3
:10514000159808F0D5FF1799888255A140F60440BC
:1051500000F0A2FB384609F0C9FE014640F2026B9E
:1051600000235A4641F2034005F0A2FC404609F0F4
:10517000BDFE014600235A4641F6030005F098FCA7
:1051800049A140F6184000F087FB384609F014FEAC
:10519000014600235A4641F2174005F089FC40467B
:1051A00009F00AFE014600235A4641F6170005F0B1
:1051B0007FFC282009F0BAFE00283FF427AF09F051
:1051C000FDFC112820D00CDC012818D0042816D0B2
:1051D00009287FF41BAF40F29E7084424DD26434A4
:1051E0004AE0212845D04128F3D1C82C01D9641EBA
:1051F000A4B2642141200CF0E9FB80B33DE0FDF74F
:10520000E5FE19B0BDE8F08F40F69800844201D267
:10521000641CA4B2642111200CF0D8FB58B12CE01E
:10522000641CA4B220460EF08DFC59460EF0D2FC50
:10523000FEF784FE01E0DFF878B0012111200CF0C8
:10524000C5FB0028ECD018E0641EA4B220460EF086
:1052500079FC59460EF0BEFCFEF770FE02E0FFE757
:10526000DFF84CB0012141200CF0B0FB0028EBD05E
:1052700003E0DC2C01D9143CA4B220460EF062FC01
:105280000B490EF0A7FCFEF759FE02488480FEF79A
:10529000ADFABBE630490020CA440020BC480020DB
:1052A000C1F7C1BF3A000000BCC6D1B93A00000046
:1052B0000AD7233C2DE9F04F0746AA48884699B003
:1052C000848805A91691A8480AA9149100260FA957
:1052D000354600EB480A00EB47091591B9F826104E
:1052E00068462DF8161000EB4600BAF826108182A9
:1052F000B9F81A100185761CBAF81A10F6B281872F
:105300000A2E02D025B10A2103E000260125FAE782
:105310003146684608F0ECFEDFF850B22BF8170073
:105320000DB10A2100E03146169808F0E1FE2BF895
:1053300018000DB10A2100E03146149808F0D8FE9B
:105340008A4901EB470BABF814000DB10A2100E0CC
:105350003146159808F0CCFE8449474501EB4801D9
:105360001791888232D10DB10A2100E0314668469A
:1053700008F0BEFE01467D4820F817100DB10A2145
:1053800000E03146149808F0B3FEABF8140078A1A1
:1053900040F60F7000F080FA384609F0A7FD01468C
:1053A00040F2026B00235A4641F20E5005F080FB9A
:1053B00071A140F61C7000F06FFA384609F0FCFC51
:1053C000014600235A4641F21B5058E00DB10A2114
:1053D00000E03146684608F08BFE644921F817006A
:1053E0000DB10A2100E03146169808F081FE014611
:1053F0005E4820F818100DB10A2100E031461498DB
:1054000008F076FEABF814000DB10A2100E0314639
:10541000159808F06DFE1799888255A140F60F7017
:1054200000F03AFA384609F061FD014640F2026B9D
:1054300000235A4641F20E4005F03AFB404609F07F
:1054400055FD014600235A4641F60E0005F030FB9B
:1054500049A140F61C7000F01FFA384609F0ACFC78
:10546000014600235A4641F21B4005F021FB40460D
:1054700009F0A2FC014600235A4641F61B0005F044
:1054800017FB282009F052FD00283FF427AF09F050
:1054900095FB112820D00CDC012818D0042816D048
:1054A00009287FF41BAF40F29E7084424DD26434D1
:1054B0004AE0212845D04128F3D1C82C01D9641EE7
:1054C000A4B2642141200CF081FA80B33DE0FDF7E5
:1054D0007DFD19B0BDE8F08F40F69800844201D2FE
:1054E000641CA4B2642111200CF070FA58B12CE0B5
:1054F000641CA4B220460EF025FB59460EF06AFB50
:10550000FEF71CFD01E0DFF878B0012111200CF05E
:105510005DFA0028ECD018E0641EA4B220460EF01C
:1055200011FB59460EF056FBFEF708FD02E0FFE7BF
:10553000DFF84CB0012141200CF048FA0028EBD0F4
:1055400003E0DC2C01D9143CA4B220460EF0FAFA98
:105550000B490EF03FFBFEF7F1FC02488480FEF79A
:1055600045F9BBE630490020CA440020BC48002071
:10557000C1F7C1BF3A000000BCC6D1B93A00000073
:105580000AD7233C032803D0042803D00320704704
:105590000420704700207047012807D0022807D058
:1055A000032807D0042807D0012070470220704745
:1055B0000320704704207047002070470449FF20F3
:1055C00008600348143801686FF3090101607047EF
:1055D000140401401348816941F0010181611248BE
:1055E000012181600021C160104801686FF3090149
:1055F0000160001F016821F4407101600B49091D21
:105600000A6842F0FF020A60091D0A6842F0FF02C0
:105610000A60064AFF2110321160016841F0FD0165
:105620000160704700100240000001400404014086
:1056300010B5FFF7C3FF0348C068BDE810400CF089
:1056400035B900000800002010B5002108480CF012
:1056500015F9084C0021E0600548001D0CF00EF91A
:10566000A06003480021BDE8104008300CF048B9A4
:10567000C4400108080000200F48816941F004017E
:105680008161816941F0080181610C49FC20086059
:105690000B4903200860094810380168094AC9B25B
:1056A0001143016006481038016821F00F0141F0F4
:1056B000080101607047000000100240100801401E
:1056C000100C014000888888064800680649C0F32D
:1056D0008500096801F0010140EA81117F208843BB
:1056E0007047000008080140080C014070B50446EE
:1056F000012801D0FF2C3AD14FF49675294601209C
:105700000CF064F928B1294602200CF05FF968B169
:105710002DE0002408F0FBFC642008F03FFE08F0B8
:10572000F6FC08F0E7FD00F0C9FB20E0002408F0DB
:10573000EEFC642008F032FE08F0E9FC08F0DAFD27
:105740000DA140F2046000F0A7F8FDF7F5FF4FF45B
:10575000E0620D4940F60520FEF7F2FE38B1042163
:105760000AA000F0A9FD062803D0FDF7E5FF2046BA
:1057700070BDFEF73BF8FAE7C7EBCAE4C8EBB3F637
:10578000B3A7B1E0BAC53A0068490020CAC7B7F16B
:10579000B1A3B4E6B1E0BAC53F0000002DE9F04185
:1057A0002D4CA08807F032FB2C490EF010FB2C4941
:1057B0000EF010FA2B4909680EF056F82A490546F2
:1057C000884200DD0D46208907F056FB274C014634
:1057D000A0696061804628460EF08CFB054624498E
:1057E000A0610EF0F7F90746A060224928460EF0A6
:1057F000F1F961680EF038F80646606041462846C7
:105800000EF078FB1C490EF0E5F90546E0603146E4
:1058100038460EF029F829460EF026F817490EF002
:10582000D9F90546164920690EF0D4F929460EF03B
:105830001BF814492061884202DC1349884200DACF
:105840002161124920690EF0C5F90EF043F9BDE857
:10585000F04180B200F0B8BDBC4400200000184206
:105860000AD7233C2C0000200000B041900000200B
:105870004260E53B8FC2753CA69B443B6666663F33
:10588000CDCCCC3D83C02A3F0AD7A33C0000D846EC
:1058900005F092BE03F0FCBF04F056B908498A69CE
:1058A00042F010028A6108B1891501E04FF0807161
:1058B00004480161416821F00F01C91C4160704733
:1058C000001002400010014070B50C4600EBC40609
:1058D00005467068FAF714FFC1B235F834007268F3
:1058E000BDE87040FFF7D6BF70B501880546080ACD
:1058F000CEB201D07043C6B2696819B14FF481705D
:10590000FFF7CAFF4FF424740C4A40F202512046BC
:1059100007F0E7F9094A40F21451204607F0E1F98F
:10592000012408E005EBC400416835F83400FFF7B6
:10593000B3FF641CE4B2B442F4D970BD78E401084A
:1059400000F00EB830B41C461346224630BC00F0BE
:10595000D9B830B41C461346224630BC00F0BCB95E
:105960002DE9F05F0C46DFF894B101880646BBF8DC
:1059700004509046080ACFB232D0784300F0FF0AB4
:105980000CB1544500D9012406EBC409D9F8040030
:10599000FAF7B6FEC1B236F83400D9F80420FFF7A2
:1059A00079FF00BF5FEA080000D08047322009F08D
:1059B000BDFA0028F6D036F83400D9F80410FFF705
:1059C0006BFF09F0FBF810283DD00BDC0A28DBD276
:1059D000DFE800F00540450543050505277DD3E7D1
:1059E000BA46CDE7212878D00DDC112839D02028FF
:1059F000CAD1641EE4B2B4FBF7F007FB10400028E4
:105A0000C2D1E0191DE0402815D04128BCD1C82DD5
:105A100001D96D1EADB2642141200BF0D7FFB8B3A0
:105A20005FE0B4FBF7F007FB104008B9E01BC4B21D
:105A3000641CE4B2A8E7E019C4B25445A4D9A4EBAD
:105A40000A00C4B2A0E7BC4202D804EB0A00C4B208
:105A5000E01BF6E72046BDE8F09F0020FBE7FF20B3
:105A6000F9E740F69800854201D26D1CADB2642181
:105A700011200BF0ABFF60B133E06D1CADB22846D6
:105A80000EF060F849460EF0A5F8FEF757FA02E06E
:105A900013E0DFF86C90012111200BF097FF002834
:105AA000EBD01EE06D1EADB228460EF04BF8494615
:105AB0000EF090F8FEF742FA01E0DFF84490012181
:105AC00041200BF083FF0028ECD00AE005E040F213
:105AD0009E70854205D2643502E0DC2D01D9143D6B
